:20400000010202020202020202020202020202020202020202020202020202020203000163
:20402000020202020202020202020202020202020202020202020202020201000000000249
:2040400002020202020202020202020202020202020202020202020200000000000202022A
:2040600002020202020202020202020202020202020202020202000000000002020202020A
:204080000202020202020202020202020202020202020202000000000002020202020202EA
:2040A0000202020202020202020202020202020202020000000000020202020202020202CA
:2040C0000202020202020202020202020202020200000000000202000202000202000202B0
:2040E000000202000202000202000202020300000000000202000202000202000202000299
:20410000020002020002020002020203000000000002020002020002020002020002020078
:20412000020200020200020202000000000000020200020200020200020200020200020259
:2041400000020200020202000000000000020200020200020200020200020200020200023B
:2041600002000202020000000000000202000202000202000202000202000202000202001B
:204180000202020000000000000202000202000202000202000202000202000202000202F9
:2041A0000200000000000002020002020002020002020002020002020002020002020200DB
:2041C0000000000000020200020200020200020200020200020200020200020202000000BD
:2041E00000000002020002020002020002020002020002020002020002020200000000009D
:2042000000020200020200020200020200020200020200020200020202000000000000027A
:2042200002000202000202000202000202000202000202000202020000000000000202005A
:20424000020200020200020200020200020200020200020202000000000000020200020238
:2042600000020200020200020200020200020200020202000000000000000200020200021C
:204280000200020200020200020200020200020202000000000000000200020200020200FC
:2042A0000202000202000202000202000202020000000000000202020202020202020202D2
:2042C0000202020202020202020202020200000000000002020202020202020202020202AA
:2042E00002020202020202020202020000000000000202020202020202020202020202028A
:20430000020202020202020202000000000000020202020202020202020202020202020269
:20432000020202020202020000000000020202020202020202020202020202020202020247
:20434000020202020204000000020202020202020202020202020202020202020202020221
:204360000202020205000402020202020202020202020202020202020202020202020202FA
:20438000020202050000000000000000000000000000000000000000000000000000000012
:2043A0000000000000000000000000000000000000000000000000000000000000000000FD
:2043C0000000000000000000000000000000000000000000000000000000000000000000DD
:2043E0000000000000000000000000000000000000000000000000000000000000000000BD
:2044000000000000000000000000000000000000000000000000000000000000000000009C
:2044200000000000000000000000000000000000000000000000000000000000000000007C
:2044400000000000000000000000000000000000000000000000000000000000000000005C
:2044600000000000000000000000000000000000000000000000000000000000000000003C
:2044800000000000000000000000000000000000000000000000000000000000000000001C
:2044A0000000000000000000000000000000000000000000000000000000000000000000FC
:2044C0000000000000000000000000000000000000000000000000000000000000000000DC
:2044E0000000000000000000000000000000000000000000000000000000000000000000BC
:2045000000000000000000000000000000000000000000000000000000000000000000009B
:2045200000000000000000000000000000000000000000000000000000000000000000007B
:2045400000000000000000000000000000000000000000000000000000000000000000005B
:2045600000000000000000000000000000000000000000000000000000000000000000003B
:2045800000000000000000000000000000000000000000000000000000000000000000001B
:2045A0000000000000000000000000000000000000000000000000000000000000000000FB
:2045C0000000000000000000000000000000000000000000000000000000000000000000DB
:2045E0000000000000000000000000000000000000000000000000000000000000000000BB
:2046000000000000000000000000000000000000000000000000000000000000000000009A
:2046200000000000000000000000000000000000000000000000000000000000000000007A
:2046400000000000000000000000000000000000000000000000000000000000000000005A
:2046600000000000000000000000000000000000000000000000000000000000000000003A
:2046800000000000000000000000000000000000000000000000000000000000000000001A
:2046A0000000000000000000000000000000000000000000000000000000000000000000FA
:2046C0000000000000000000000000000000000000000000000000000000000000000000DA
:2046E0000000000000000000000000000000000000000000000000000000000000000000BA
:20470000000000000000000000000000000000000000000000000000000000000000000099
:20472000000000000000000000000000000000000000000000000000000000000000000079
:204740000000000000000000000000000000000000000000000055FFFFFF020055FFFFFFB3
:2047600002000055FFFFFFFF020001FF00000000000000000000000000000000000055FF90
:20478000FFFFAB0055FFFFFFFF000055FFFFFFFF0200FFFF000000000000000000000000CE
:2047A00000000000000055AA0057FF0255AA0057FF020055AA0000000001FF030000000049
:2047C000000000000000000000000000000055AA0000FF0255AA0000FF020055AA000000DA
:2047E0000055AB0000000000000000000000000000000000000055AA0000FF0255AA0000BA
:20480000FF020055AA0000000055AB0000000000000000000000000000000000000055AA99
:204820000000FF0255AA0057FF020055AA0000000001FF020000000000000000000000001F
:2048400000000000000055AA0057FF0255FFFFFFAB000055FFFFFFFF0000FFFF00000000B5
:20486000000000000000000000000000000055FFFFFFAB0055FFFFFF02000055FFFFFFFF96
:20488000000057FF00000000000000000000000000000000000055FFFFFF020055AA015717
:2048A000AB000055AA0000000000000100000000000000000000000000000000000055AA4E
:2048C0000000000055AA0001FF000055AA00000000000000000000000000000000000000DA
:2048E00000000000000055AA0000000055AA0000FF020055AA0000000000000000000000BA
:20490000000000000000000000000000000055AA0000000055AA000057AA0055AA00000099
:204920000000000000000000000000000000000000000000000055AA0000000055AA000079
:2049400055AB0055AA0000000055AB0200000000000000000000000000000000000055AA57
:204960000000000055AA000001FF0055FFFFFFFF0255FFFF00000000000000000000000092
:2049800000000000000055AA0000000055AA000001FF0255FFFFFFFF020157FF000000006D
:2049A0000000000000000000000000000000000000000000000000000000000000000000F7
:2049C0000000000000000000000000000000000000000000000000000000000000000000D7
:2049E0000000000000000000000000000000000000000000000000000000000000000000B7
:204A0000000000000000000000000000000000000000000000000000000000000000000096
:205180000000000000000000000000000000000000000000FFAB02000057FFFF030000000B
:2051A00000000001FF0200000000000000000000000000000000000000000000FFFFAA0045
:2051C00055FFFFFFFF00000000000055FF0200000000000000000000000000000000000028
:2051E000000000000157AA0057AB0203FF00000000000057FFAA00000000000000000000A7
:2052000000000000000000000000000000000000FF02000000000000000000FF57AB00008C
:20522000000000000000000000000000000000000000000000000000FF020000000000006D
:20524000000000FF03FF00000000000000000000000000000000000000000000000000004D
:2052600057AB000000000000000001FF00FF0000000000000000000000000000000000002D
:20528000000000000302000055FFAB0300000000000055AB00FF0200000000000000000006
:2052A000000000000000000000000000FFFF020001FFFFFFAB000000000057AA0057AA0043
:2052C000000000000000000000000000000000000000000057FFAA00000003FFFF000000CD
:2052E000000057AA0055AB0000000000000000000000000000000000000000000057AB00AB
:2053000000000001FF0200000000FF020055AB00000000000000000000000000000000008A
:20532000000000000055FF0000000000FFAA00000001FFFFFFFFFF00000000000000000074
:205340000000000000000000000000000055AB0000000000FF0200000055FFFFFFFFFF02FA
:20536000000000000000000000000000000000000000000001FFAB00FF030057FF02000028
:205380000055AB000000FFAA0000000000000000000000000000000000000000FFFFAA00BC
:2053A000FFFFFFFFFF0000000057AA00000057AA00000000000000000000000000000000F0
:2053C00000000000FFAB000003FFFFFF0200000000FF0200000055AB000000000000000020
:2053E0000000000000000000000000000000000000000000000000000000000000000000AD
:2054000000000000000000000000000000000000000000000000000000000000000000008C
:2054200000000000000000000000000000000000000000000000000000000000000000006C
:2054400000000000000000000000000000000000000000000000000000000000000000004C
:20582000000000000055AA0000AA55000055AA0000AA55000055AA0000AA55000055AA006F
:2058400000AA550000000000000000000055FFFF000000000055AA0000AA55000055AA00F9
:20586000FFFF55000000000000000000FFFFFFFF00000000000000000000000000000000D9
:20588000FFFFFFFF0000000000000000FFFFAA00000000000055AA0000AA55000055AA0067
:2058A00000AAFFFF0055AA0000AA55000055FFFF00AA5500000000000000000000000000F0
:2058C000FFFF55000055AA0000AA5500FFFFAA0000AA5500000000000000000000000000D0
:2058E00000AAFFFF5444555C585D4D5E4C454752534A434B0C0C0C0C0C0C0C0C0C0C0C0C72
:205900000C0C0C0C0C0C0C0C0C0C0C0C0C0C0C0C0C0C0C0C0C0C0C0C0C0C0C0C0C0C0C0C07
:205920000C0C0C0C0C0C0C0C0C0C0C0C0C0C0C0C0C0C0C0C0C0C0C0C0C0C0C0C0C0C0C0CE7
:205940000C0C0C0C0C0C0C0C0C0C0C0C0C0C0C0C0C0C0C0C0C0C0C0C0C0C0C0C0C0C0C0CC7
:205960000C0C0C0C0C0C0C0C0C0C0C0C0C0C0C0C0C0C0C0C0C0C0C0C0C0C0C0C0C0C0C0CA7
:207780000C0C0C0C0C0C5DFFAE5D0C0C0C0C5DFF0C0C0C0C0C0C0C0C0C0C0C0C0C0C0C0CEE
:2077A0000C0C0C0CFFFFFF0CA4FFF50CFFFF040C0C0C0C0C0C0C0C0C0C0C0C0C0C0C0C0C1E
:2077C0000C0C0C0C5DFFFFFFF50CAE5D5DFFFFFF0C0C0C0C0C0C0C0C0C0C0C0C0C0C0C0CF9
:2077E0000C0C0C0CFF0C0C5D5D0CA4FFAE0C0C5D0C0C0C0C0C0C0C0C0C0C0C0C0C0C0C0CF6
:207800000C0C0C0CFFFFFFFF0C0C0CAEFFFFFFFF0C0C0C0C0C0C0C0C0C0C0C0C0C0C0C0CAE
:207820000C0C0C0CA40CFFFFFAFF080CA40C5DFF0C0C0C0C0C0C0C0C0C0C0C0C0C0C0C0C91
:207840000C0C0C0CFFFFAE0C0CAE5558FFFFA40C0C0C0C0C0C0C0C0C0C0C0C0C0C0C0C0C6B
:207860000C0C0C0C5DFFFFFFA0A4FF550CFFFFFF0C0C0C0C0C0C0C0C0C0C0C0C0C0C0C0C1D
:207880000C0C0C0CFF0C0C0C0C0C0CFFFA0C0C0C0C0C0C0C0C0C0C0C0C0C0C0C0C0C0C0C94
:2078A0000C0C0C0C0C0C0C5DF50C0C0C0C0C0C5D0C0C0C0C0C0C0C0C0C0C0C0C0C0C0C0CBD
:2078C0000C0C0C0CFFAE0C0C0C0CAEFFFFA40C0C0C0C0C0C0C0C0C0C0C0C0C0C0C0C0C0C73
:2078E0000C0C0C0C0C0C0C0C0C0C0C0C0C0C0C0C0C0C0C0C0C0C0C0C0C0C0C0C0C0C0C0C08
:207900000C0C0C0C0C0C0C0C0C0C0C0C0C0C0C0C0C0C0C0C0C0C0C0C0C0C0C0C0C0C0C0CE7
:207920000C0C0C0C0C0C0C0C0C0C0C0C0C0C0C0C0C0C0C0C0C0C0C0C0C0C0C0C0C0C0C0CC7
:207940000C0C0C0C0C0C0C0C0C0C0C0C0C0C0C0C0C0C0C0C0C0C0C0C0C0C0C0C0C0C0C0CA7
:207960000C0C0C0C0C0C0C0C0C0C0C0C0C0C0C0C0C0C0C0C0C0C0C0C0C0C0C0C0C0C0C0C87
:207980000C0C0C0C0C0C0C0C0C0C0C0C0C0C0C0C0C0C0C0C0C0C0C0C0C0C0C0C0C0C0C0C67
:2079A0000C0C0C0C0C0C0C0C0C0C0C0C0C0C0C0C0C0C0C0C0C0C0C0C0C0C0C0C0C0C0C0C47
:2079C0000C0C0C0C0C0C0C0C0C0C0C0C0C0C0C0C0C0C0C0C0C0C0C0C0C0C0C0C0C0C0C0C27
:2079E0000C0C0C0C0C0C0C0C0C0C0C0C0C0C0C0C0C0C0C0C0C0C5DAEAE5D0C0C0C0C5DAE2E
:207A0000AE5D0C0C0C0C5DAEAE5D0C0C0C0C5DFFFF5D0C0C0C0CFF04AEFF0C0C0CF5FFA491
:207A200004FF0C0C0C0C0C0C0C0C0C0CFFFF040C0CFFFFFF5DAE0C0C0C0CAE5D5DFFFFFF14
:207A4000F50CAE5D5DAE0C080C0CAE5D5DAE5855FFFFFF5DFF040C5D5D0C04FFAA0C0C5DCF
:207A60005D0CA4FFFF0C0C5D5D0C04FFAA0C0C5D5D0C0CAEAE0C0C0C0C0C0CAEFFFFFFFF38
:207A80000C0C0CAEAE0C0C0C0C0C0CAEAE0C0C0CFFFFFFFF0C5DFF0C0CFF5D0C0C0CFFFFA4
:207AA000A4FF5D0C0C0C0C0C0C0C0C0C0C0C0C58FFF50C0C0C0C0C0C0C0C0C0CAAA40C0C0C
:207AC0000C0C0C0C0CF5FF0C0CFF5D0CFFFFAE0C0CA4FFFFFFAE0C0C0C0CAEFF5DFFFF505B
:207AE0000C0CFAFF0C0C0C580C0C0C0C0C0CF5FFFFFFFF580C0C0C0C0C0C0C0C0C0C0C0CD8
:207B00000C0C0C0CFFAE0C0C0C0CAEFFFF0C0C0C0C0C0CFA0C0C0CFFFF0C0C0C0C0C5DAA05
:207B2000FF080C0C0C0CFF04FFFF580C0C0CFFAEAEF50C0CFFAA0C0C0C0CFFA00CFFAE0CEC
:207B40000C0CFF0C0C5DFF0C0CFFFFFF0C5DFA0C0CAE550C0C0C0C0C0C0C0C0C0C0C0C0C6B
:207B60000C0C0C0C0C0C0C0C0C0C0C0C0C0C0C0C0C0C0C0C0C0C0C0C0C0C0C0C0C0C0C0C85
:207B80000C0C0C0C0C0C0C0C0C0C0C0C0C0C0C0C0C0C0C0C0C0C0C0C0C0C0C0C0C0C0C0C65
:207BA0000C0C0C0C0C0C0C0C0C0C0C0C0C0C0C0C0C0C0C0C0C0C0C0C0C0C0C0C0C0C0C0C45
:207BC0000C0C0C0C0C0C0C0C0C0C0C0C0C0C0C0C0C0C0C0C0C0C0C0C0C0C0C0C0C0C0C0C25
:207BE0000C0C0C0C0C0C0C0C0C0C0C0C0C0C0C0C0C0C0C0C0C0C0C0C0C0C0C0C0C0C0C0C05
:207C00000C0C0C0C0C0C0C0C0C0C0C0C0C0C0C0C0C0C0C0C0C0C0C0C0C0C0C0C0C0C0C0CE4
:207C20000C0C0C0C0C0C0C0C0C0C0C0C0C0C0C0C0C0C0C0C0C0C0C0C0C0C0C0C0C0C0C0CC4
:207C40000C0C0C0C0C0C0C0C0C0C0C0C0C0C0C0C0C0C0C0C0C0C0C0C0C0C0C0C0C0C0C0CA4
:207C60000C0C0C0C0C0C0C0C0C0C0C0C0C0C0C0C0C0C0C0C0C0C5DAEAE5D0C0C0C0C5DAEAB
:207C8000AE5D0C0C0C0C0C0C0C0C0C0C0C0C0C0C0C0C0C0C0C0C0C0C0C0C0C0C0C0C0C0C71
:207CA0000C0C0C0C0C0C0C0C0C0C0C0C0C0C0C0C0C0C0C0C5DAE0C0C0C0CAE5D5DAE0C0C6B
:207CC0000C0CAE5D0C0C0C0C0C0C0C0C0C0C0C0C0C0C0C0C55AE0C5D5D0CAA5D58FFA45D8D
:207CE0005D0CFF5D0C0C0C0C0C0C0C0C0C0C0C0C0C0C0C0CAE0C0C0C0C0C0CAEFFFFFFFF5F
:207D0000FFFFFFFF0C0C0C0C0C0C0C0C0C0C0C0C0C0C0C0C0C0C0C0CA4AA5D0CAE58FFFFBC
:207D2000FFFF5DAE0C0C0C0C0C0C0C0C0C0C0C0C0C0C0C0C0C5DFF0C0CAAFF58FFAA0C0C38
:207D40000CAEFFFF0C0C0C0C0C0C0C0C0C0C0C0C0C0C0C0C0C0C0C0CF50C50FFF5FFFFFF39
:207D6000FFFFFFFF0C0C0C0C0C0C0C0C0C0C0C0C0C0C0C0CFFAE0C0C0C0C04FF040C0C0C3F
:207D80000C0C0CFF0C0C0C0C0C0C0C0C0C0C0C0C0C0C0C0C0C5DFFFF0CAA5D0C0CFFAE0CB5
:207DA0000CAE550C0C0C0C0C0C0C0C0C0C0C0C0C0C0C0C0CFFFFFF04AEFF0C0C0C0C5DAA03
:207DC000AEF50C0C0C0C0C0C0C0C0C0C0C0C0C0C0C0C0C0C0C0C0C0C0C0C0C0C0C0C0C0C98
:207DE0000C0C0C0C0C0C0C0C0C0C0C0C0C0C0C0C0C0C0C0C0C0C0C0C0C0C0C0C0C0C0C0C03
:207E00000C0C0C0C0C0C0C0C0C0C0C0C0C0C0C0C0C0C0C0C0C0C0C0C0C0C0C0C0C0C0C0CE2
:207E20000C0C0C0C0C0C0C0C0C0C0C0C0C0C0C0C0C0C0C0C0C0C0C0C0C0C0C0C0C0C0C0CC2
:207E40000C0C0C0C0C0C0C0C0C0C0C0C0C0C0C0C0C0C0C0C0C0C0C0C0C0C0C0C0C0C0C0CA2
:209760000C0C0C0C0C0C0C0C0C0C0C0C0C0C0C0C0C0C0C0C2832020800000F0000DD217414
:2097800097C37599DD217497C3AA99DD217497DD360400DD360500CD649F210820CDD69CC2
:2097A000280706FFDD7004180D210720CDD69C28050601DD7004210708CDD69C280C06FE4C
:2097C000DD700518173E00CD939C210710CDD69C280A0602DD70053E01CD939CC93A759781
:2097E000473A7497C90000AA00000000000000FFFFAA00000000000000FFFFAA000000001A
:20980000000000FFFFAA00000000000000FFFFAA00000000000000FFFFFFFF010400040FE4
:2098200014309900000001889800048E980002949801019A98FF0000000021E898C3CB98D8
:20984000212399C3CB98214699C3CB98CD649FDD212598DD7E00FEFF2823DD6E00DD660122
:20986000CDD69CDD6E02DD6603226D98C4000028053E01323998110400DD1918D63A3998B8
:20988000FE00C2AC98C3A6983EFF323798C93E01323798C93E01323698C93EFF323698C9A5
:2098A0003E01323898C93E00323898C93A3898FE00200921F198CDCB98CDA0983E003224F1
:2098C00098323698323798323998C93E00DD21E79722D898322398CD0000110A00DD193AD2
:2098E00023983CFE0520EDC9DD7E07FE00C47599C93A2498FE00C0DD7E07FE00C0DDE5D136
:20990000211998010A00EDB0CDDD97DD7700DD70013A3698DD77043A3798DD77053E0132B7
:209920002498C9DD7E07FE00C8DD6E08DD6609E9DD3507DD7E00DD8604DD7700DD7E01DD8A
:209940008605DD7701C9DD7E07FE00C4AA99C9CD649F210820CDD69C207B2184431180C200
:209960000E280642CDE29C21D44D11A8C20E280642CDE29CC91100C0FEFF2009DD7E004F2E
:20998000DD7E011813DD7E00DD8604DD77004FDD7E01DD8605DD770147CD489FEBDD7E067B
:2099A000DD4E02DD4603CD6F9EC9DD7E0608DD3606003EFFCD759908DD7706C9CD3A9E0E39
:2099C00000CD259E21E458111000CDC39CCD5A99CD4F9918FBCDAA9CCD4C98CD479ACD8BFB
:2099E00097CD4098CD329ECD419ACD4698CD8C9CCD8497CD3B9ACD3A98CD859CCD7D971836
:209A0000D72732010400000F779A00000000000000000000000000000001271002080000AF
:209A20000F779A00000000000000000000000000000001FF1421649AC34D9A217599C34DEA
:209A40009A21AA99C34D9A21709AC34D9ADD211A9A225B9ADD7E00FEFFC8CD0000111900A9
:209A6000DD1918F0DDE5D121019A011900EDB0C9DD6E07DD6608E93A349A3D32349AC03E50
:209A80000132349ADD360C00DD360D00DD360E00DD360F00DD361100DD361000DD360400E5
:209AA000DD360500DD361200DD361300DD361400DD361500DD361600DD361700CD4A9E7D6F
:209AC000FE4FDD960030022F3CFE1430EFFE0A38EBDD750A7DDD9600DD770C3806DD3604CC
:209AE00001180EDD3604FF2F3CDD770C3E00DD770DCD4A9E7DFE64DD960130022F3CFE1408
:209B000030EFFE0A38EBDD750B7DDD9601DD770E3806DD360501180EDD3605FF2F3CDD77F8
:209B20000E3E00DD770FDD6E0EDD660FCD649CEBDD6E0CDD660DCD649C30013FED52380DAB
:209B40003E00DD7710DD7E04DD771118253E00DD7711DD7E05DD7710DD6E0CDD660DEBDD8C
:209B60006E0EDD660FDD750CDD740DEBDD750EDD740FDD6E0EDD660F29DD7514DD7415DD33
:209B80006E0CDD660DCD6F9CEBDD6E14DD661519DD7512DD741319DD7516DD74171100C0E6
:209BA000DD4E0ADD460BCD489FEB3EEE0E010604CD6F9E21BF9BDD7408DD7507C3BF9BDD5D
:209BC0007E0ADDBE002012DD360400DD36050021779ADD7408DD7507C9DD6E12DD66131190
:209BE000008030013FED52303EDD7E18FE012821DD7E1047DD7E05DD771078DD7705DD7E6B
:209C00001147DD7E04DD771178DD77043E01DD7718DD6E12DD6613EBDD6E16DD661719DD5E
:209C20007512DD7413183CDD7E18FE002821DD7E1047DD7E05DD771078DD7705DD7E114731
:209C4000DD7E04DD771178DD77043E00DD7718DD6E12DD6613EBDD6E14DD661519DD7512F4
:209C6000DD7413C97CFE00C87D2F3C26006FC97CFEFFC87D2F3C26FF6FC900400A2804082B
:209C80000000FF0000DD217C9CC37599DD217C9CC3AA992A7A9CFE012005113C00180311E5
:209CA000C4FF19227A9CCDAA9CC92124580E140619111E00CD1C9F2100C0ED5B7A9CCD8291
:209CC0009DC9C91D19067FED597EE61FF640ED792B1DF2C79CC97C572600011B9E09AEA2C3
:209CE0006FC93E7E919132F09C78EBEB0100081800EDA0EDA0EDA0EDA0EDA0EDA0EDA0ED59
:209D0000A0EDA0EDA0EDA0EDA0EDA0EDA0EDA0EDA0EDA0EDA0EDA0EDA0EDA0EDA0EDA0ED73
:209D2000A0EDA0EDA0EDA0EDA0EDA0EDA0EDA0EDA0EDA0EDA0EDA0EDA0EDA0EDA0EDA0ED53
:209D4000A0EDA0EDA0EDA0EDA0EDA0EDA0EDA0EDA0EDA0EDA0EDA0EDA0EDA0EDA0EDA0ED33
:209D6000A0EDA0EDA0EDA0EDA0EDA0EDA0EDA03DC8EB09477CE63878C2EB9C0150C009C3F0
:209D8000EB9CFD210000F3ED73039E1A47AFCB381FCB381FCB381F4FDD210000DD09DDF9AB
:209DA000C1712C702CC1712C70CBDCC1712D702DC1712D70CBE4C1712C702CC1712C70CB27
:209DC0009CC1712D702DC1712D70CBECC1712C702CC1712C70CBDCC1712D702DC1712D702B
:209DE000CBA4C1712C702CC1712C70CB9CC1712D702DC1712D70CBAC2C2C2C2313FD2DC2DD
:209E00008B9D310000FBFD25281001000009FD2E00EB01000009EBC3869DC9FFFFFFFFFFD5
:209E2000FFFFFFFFFF211B9F7EE6FCB1067FED7977C906F5ED781F30FBC9F32A3900EBED6F
:209E40005621FBC9223800FBEBC93E013D2013ED5B959F2A979FCD999FED53959F22979F62
:209E60003E04324B9E21949F856F8C95676EC9626B1213E50D3E7E919132849E1803D5ED8B
:209E8000A00EFF1800EDA0EDA0EDA0EDA0EDA0EDA0EDA0EDA0EDA0EDA0EDA0EDA0EDA0EDE7
:209EA000A0EDA0EDA0EDA0EDA0EDA0EDA0EDA0EDA0EDA0EDA0EDA0EDA0EDA0EDA0EDA0EDD2
:209EC000A0EDA0EDA0EDA0EDA0EDA0EDA0EDA0EDA0EDA0EDA0EDA0EDA0EDA0EDA0EDA0EDB2
:209EE000A0EDA0EDA0EDA0EDA0EDA0EDA0EDA0EDA0EDA0EDA0EDA0EDA0EDA0EDA0EDA0ED92
:209F0000A0EDA0E105C85D7CC60857E638C27E9E7BC6505F7ACEC057C37E9E9D229A9DED5B
:209F200043849D7932109E3D933801152F5FED53139E7987872FC651320B9EED573EFBEAB8
:209F4000449F3EF332059EC97B815F8A935778E6F86F26007829444D292909E60707070706
:209F6000846719C9F30182F7ED49010EF458ED4901C0F650ED49ED710192F7ED493E400EF9
:209F80000A211B9E42ED7943EDA23C0D20F60182F7ED49FBC97B1AF2597AAB57477BAC5F67
:1C9FA0004F7CAD67CB18CB191FAD6F7CA9671F7D1F0E00CB19AA577BA8A95FC996
:00000001FF
